:020000040800F2
:100000000050002069680008455F0008515F000843
:10001000575F00085D5F0008635F00080000000094
:10002000000000000000000000000000695F000800
:10003000755F000800000000815F00088D5F000808
:10004000B1680008B1680008B1680008B16800082C
:10005000B1680008B1680008B1680008B16800081C
:10006000B1680008B1680008B1680008B16800080C
:10007000B1680008B1680008B1680008B1680008FC
:10008000B1680008B1680008B1680008B1680008EC
:10009000995F0008B1680008B1680008B1680008FD
:1000A000B1680008B1680008B1680008B1680008CC
:1000B000B1680008B1680008B1680008B1680008BC
:1000C000B1680008B1680008B1680008B1680008AC
:1000D000B1680008B1680008B1680008B16800089C
:1000E000B1680008B1680008B168000800000000AD
:1000F0000000000000000000000000000000000000
:0C01000000000000000000005FF808F1A3
:10010C0010B5054C237833B9044B13B10448AFF345
:10011C0000800123237010BD60030020000000004C
:10012C00F872000808B5034B1BB103490348AFF341
:10013C00008008BD0000000064030020F872000875
:10014C0010F8012B11F8013B012A28BF9A42F7D075
:10015C00D01A7047034613F8012B002AFBD1181A4A
:10016C000138704780B500AF084B1B68074A43F055
:10017C0010031360032000F045F9002000F008F88C
:10018C0005F060FE0023184680BD00BF0020024031
:10019C0080B582B000AF7860124B1A68124B1B7896
:1001AC0019464FF47A73B3FBF1F3B2FBF3F3184631
:1001BC0000F05DF90346002B01D001230EE07B68B3
:1001CC000F2B0AD8002279684FF0FF3000F025F988
:1001DC00064A7B681360002300E0012318460837A9
:1001EC00BD4680BD08010020040000200000002056
:1001FC0080B400AF054B1B781A46054B1B681344A3
:10020C00034A136000BFBD4680BC70470400002049
:10021C007406002080B400AF024B1B681846BD4624
:10022C0080BC70477406002080B584B000AF786045
:10023C00FFF7F0FFB8607B68FB60FB68B3F1FF3F32
:10024C0005D0094B1B781A46FB681344FB6000BFB2
:10025C00FFF7E0FF0246BB68D31AFA689A42F7D858
:10026C0000BF1037BD4680BD0400002080B485B0AF
:10027C0000AF78607B6803F00703FB600C4BDB6816
:10028C00BB60BA684FF6FF031340BB60FB681A02F1
:10029C00BB68134343F0BF6343F40033BB60044AB1
:1002AC00BB68D36000BF1437BD4680BC704700BF2D
:1002BC0000ED00E080B400AF044BDB681B0A03F0D8
:1002CC0007031846BD4680BC704700BF00ED00E038
:1002DC0080B483B000AF0346FB7197F90730002B55
:1002EC000BDBFB7903F01F02064997F907305B091A
:1002FC00012000FA02F241F8232000BF0C37BD4662
:10030C0080BC704700E100E080B483B000AF0346CE
:10031C003960FB7197F90730002B0ADB3B68DAB2C6
:10032C000C4997F907301201D2B20B4483F8002321
:10033C000AE03B68DAB20849FB7903F00F03043B8F
:10034C001201D2B20B441A7600BF0C37BD4680BCEA
:10035C00704700BF00E100E000ED00E080B489B020
:10036C0000AFF860B9607A60FB6803F00703FB61CB
:10037C00FB69C3F10703042B28BF0423BB61FB6992
:10038C000433062B02D9FB69033B00E000237B619D
:10039C004FF0FF32BB6902FA03F3DA43BB681A4031
:1003AC007B699A404FF0FF317B6901FA03F3D94323
:1003BC007B680B40134318462437BD4680BC7047FE
:1003CC0080B582B000AF78607B68013BB3F1807F71
:1003DC0001D301230FE00A4A7B68013B53600F21D4
:1003EC004FF0FF30FFF790FF054B00229A60044B53
:1003FC0007221A60002318460837BD4680BD00BF8F
:10040C0010E000E080B582B000AF78607868FFF74C
:10041C002DFF00BF0837BD4680BD80B586B000AF4C
:10042C000346B9607A60FB7300237B61FFF742FFE0
:10043C0078617A68B9687869FFF790FF024697F996
:10044C000F3011461846FFF75FFF00BF1837BD4647
:10045C0080BD80B582B000AF0346FB7197F90730C1
:10046C001846FFF735FF00BF0837BD4680BD80B585
:10047C0082B000AF78607868FFF7A2FF0346184699
:10048C000837BD4680BD000080B48BB000AF7860EB
:10049C00396000237B6200233B6227E101227B6AE7
:1004AC0002FA03F3FB613B681B68FA691340BB61FA
:1004BC00BA69FB699A4240F016813B685B68122B63
:1004CC0034D0122B0DD8022B2BD0022B04D8002B9E
:1004DC0031D0012B1CD048E0032B43D0112B1BD067
:1004EC0043E0894A934226D0874A934206D8874AEA
:1004FC00934220D0864A93421DD036E0854A9342DF
:10050C0019D0854A934216D0844A934213D02CE0DA
:10051C003B68DB683B6228E03B68DB6804333B628A
:10052C0023E03B68DB6808333B621EE03B68DB681A
:10053C000C333B6219E03B689B68002B02D104230F
:10054C003B6212E03B689B68012B05D108233B62A0
:10055C007B68FA691A6108E008233B627B68FA69D8
:10056C005A6102E000233B6200BFBB69FF2B01D83C
:10057C007B6801E07B6804337B61BB69FF2B02D88D
:10058C007B6A9B0002E07B6A083B9B003B617B69BA
:10059C001A680F213B6901FA03F3DB431A40396AED
:1005AC003B6901FA03F31A437B691A603B685B6889
:1005BC0003F08053002B00F09680594B9B69584AEE
:1005CC0043F001039361564B9B6903F00103BB603D
:1005DC00BB68544A7B6A9B08023352F82330FB6099
:1005EC007B6A03F003039B000F2202FA03F3DB4345
:1005FC00FA681340FB607B684B4A934213D07B68CC
:10060C004A4A93420DD07B68494A934207D07B6893
:10061C00484A934201D1032306E0042304E0022359
:10062C0002E0012300E000237A6A02F00302920048
:10063C009340FA681343FB603A497B6A9B08023388
:10064C00FA6841F823203B685B6803F48033002B85
:10065C0006D0394B1A683849BB6913430B6006E066
:10066C00354B1A68BB69DB43334913400B603B685D
:10067C005B6803F40033002B06D02F4B5A682E49CD
:10068C00BB6913434B6006E02B4B5A68BB69DB43D9
:10069C00294913404B603B685B6803F48013002BC3
:1006AC0006D0254B9A682449BB6913438B6006E03E
:1006BC00214B9A68BB69DB431F4913408B603B6835
:1006CC005B6803F40013002B06D01B4BDA681A4945
:1006DC00BB691343CB6006E0174BDA68BB69DB439D
:1006EC0015491340CB607B6A01337B623B681A6807
:1006FC007B6A22FA03F3002B7FF4D0AE00BF2C37B9
:10070C00BD4680BC704700BF0000211000001110D6
:10071C0000001210000031100000321000002210F6
:10072C00001002400000014000080140000C014094
:10073C0000100140001401400004014080B485B059
:10074C0000AF78600B467B807B689A687B8813408F
:10075C00002B02D00123FB7301E00023FB73FB7B16
:10076C0018461437BD4680BC704780B483B000AFC8
:10077C0078600B467B8013467B707B78002B03D014
:10078C007A887B681A6103E07B881A047B681A619B
:10079C0000BF0C37BD4680BC7047F0B58BB006AFC0
:1007AC0078607B68002B01D10123D3E07B6893F840
:1007BC002932DBB2002B06D17B68002283F8282279
:1007CC00786805F07DFC7B68032283F829227B681E
:1007DC001B68184601F059FE7B681B683B607E68FD
:1007EC006D4606F110040FCC0FC523682B60331D2A
:1007FC000ECB386801F022FE0346002B05D07B6837
:10080C00022283F829220123A4E07B681B680021C3
:10081C00184601F056FE0023FB7335E0FB7B7A682B
:10082C005B011344293301221A70FB7B7A685B014C
:10083C0013442833FA7B1A70FB7BFA7B91B27A68EB
:10084C005B01134436330A461A80FB7B7A685B01E2
:10085C0013442B3300221A70FB7B7A685B01134420
:10086C00383300221A60FB7B7A685B0113443C33FB
:10087C0000221A60FB7B7A6802335B01134400226E
:10088C001A60FB7B0133FB73FA7B7B685B689A42D3
:10089C00C4D30023FB7331E0FB7B7A685B01134408
:1008AC0003F2291300221A70FB7B7A685B01134454
:1008BC0003F59473FA7B1A70FB7B7A685B01134423
:1008CC0003F22B1300221A70FB7B7A685B01134432
:1008DC0003F59C7300221A60FB7B7A685B0113445E
:1008EC0003F59E7300221A60FB7B7A680A335B0166
:1008FC00134400221A60FB7B0133FB73FA7B7B6889
:10090C005B689A42C8D37B681B683B607E686D4607
:10091C0006F110040FCC0FC523682B60331D0ECBD2
:10092C00386801F0DAFD0346002B05D07B68022203
:10093C0083F8292201230DE07B68002283F8242010
:10094C007B68012283F829227B681B68184602F019
:10095C0018FE002318461437BD46F0BD80B582B092
:10096C0000AF78607B6893F82832012B01D1022309
:10097C0016E07B68012283F828220121786805F0B3
:10098C00E8FD7B681B68184602F0F1FD7B681B686C
:10099C00184601F063FD7B68002283F828220023AF
:1009AC0018460837BD4680BD80B582B000AF786070
:1009BC007B681B68184602F0EEFD034603F4004307
:1009CC00B3F5004F02D1786800F0DEFA7B681B6843
:1009DC00184602F0E0FD034603F48063B3F5806F24
:1009EC0012D17B681B68B3F844309AB27B681B68E1
:1009FC0022F4806292B2A3F84420786805F0D5FB0B
:100A0C000021786800F0DEF87B681B68184602F05D
:100A1C00C2FD034603F48043B3F5804F0BD17B68D2
:100A2C001B68B3F844309AB27B681B6822F480428E
:100A3C0092B2A3F844207B681B68184602F0ABFD09
:100A4C00034603F40053B3F5005F0BD17B681B68BE
:100A5C00B3F844309AB27B681B6822F4005292B20D
:100A6C00A3F844207B681B68184602F094FD0346EB
:100A7C0003F48053B3F5805F26D17B681B68B3F811
:100A8C0040309AB27B681B6822F0040292B2A3F841
:100A9C0040207B681B68B3F840309AB27B681B68B7
:100AAC0022F0080292B2A3F84020786805F0B6FB59
:100ABC007B681B68B3F844309AB27B681B6822F4DD
:100ACC00805292B2A3F844207B681B68184602F04F
:100ADC0062FD034603F40063B3F5006F3DD17B6800
:100AEC001B68B3F840309AB27B681B6842F008026E
:100AFC0092B2A3F840207B681B68B3F844309AB2DA
:100B0C007B681B6822F4006292B2A3F844207B68D5
:100B1C001B68B3F840309AB27B681B6842F0040241
:100B2C0092B2A3F840207B681B68184602F033FD94
:100B3C00034603F48053B3F5805F0BD17B681B68CD
:100B4C00B3F844309AB27B681B6822F4805292B29C
:100B5C00A3F84420786805F047FB7B681B681846AF
:100B6C0002F019FD034603F40073B3F5007F0ED1B8
:100B7C007B681B68B3F844309AB27B681B6822F41C
:100B8C00007292B2A3F84420786805F000FB7B68F1
:100B9C001B68184602F0FFFC034603F48073B3F5A0
:100BAC00807F0BD17B681B68B3F844309AB27B68AA
:100BBC001B6822F4807292B2A3F8442000BF08375D
:100BCC00BD4680BD80B582B000AF78600B46FB702F
:100BDC007B6893F82832012B01D1022313E07B6848
:100BEC00012283F828227B68FA7883F824207B681A
:100BFC001B68FA781146184602F0A6FC7B680022A6
:100C0C0083F82822002318460837BD4680BD80B5DE
:100C1C0084B000AF7860084611461A460346FB7054
:100C2C000B463B801346BB700023FB7297F90330D5
:100C3C00002B0BDAFB7803F007035B0128337A688F
:100C4C001344FB60FB6801225A700BE0FB7803F045
:100C5C0007035B0103F594737A681344FB60FB682C
:100C6C0000225A70FB7803F00703DAB2FB681A70A3
:100C7C003A88FB681A61FB68BA78DA70FB685B78B3
:100C8C00002B04D0FB681B789AB2FB68DA81BB7826
:100C9C00022B02D1FB6800221A717B6893F8283270
:100CAC00012B01D102230EE07B68012283F828225C
:100CBC007B681B68F968184601F034FC7B680022DD
:100CCC0083F82822FB7A18461037BD4680BD80B5C4
:100CDC0084B000AF78600B46FB7097F90330002BA3
:100CEC000BDAFB7803F007035B0128337A681344B3
:100CFC00FB60FB6801225A700BE0FB7803F00703E2
:100D0C005B0103F594737A681344FB60FB68002263
:100D1C005A70FB7803F00703DAB2FB681A707B6831
:100D2C0093F82832012B01D102230EE07B680122BB
:100D3C0083F828227B681B68F968184601F0E0FEEE
:100D4C007B68002283F82822002318461037BD4602
:100D5C0080BD80B586B000AFF8607A603B600B4612
:100D6C00FB72FB7A03F007035B0103F59473FA68DB
:100D7C0013447B617B697A685A617B693A689A6132
:100D8C007B690022DA617B6900225A70FB7A03F0DE
:100D9C000703DAB27B691A70FB7A03F00703002BA6
:100DAC0006D1FB681B687969184602F03FF805E02C
:100DBC00FB681B687969184602F038F8002318465E
:100DCC001837BD4680BD80B586B000AFF8607A603C
:100DDC003B600B46FB72FB7A03F007035B01283385
:100DEC00FA6813447B617B697A685A617B693A685B
:100DFC009A617B690022DA617B6901225A70FB7A65
:100E0C0003F00703DAB27B691A70FB7A03F007036D
:100E1C00002B06D1FB681B687969184602F006F8AE
:100E2C0005E0FB681B687969184601F0FFFF002399
:100E3C0018461837BD4680BD80B584B000AF7860C9
:100E4C000B46FB70FB7803F007027B685B689A42E9
:100E5C0001D9012346E097F90330002B0BDAFB781C
:100E6C0003F007035B0128337A681344FB60FB68CB
:100E7C0001225A7009E0FB785B0103F594737A68E0
:100E8C001344FB60FB6800225A70FB6801229A70C5
:100E9C00FB7803F00703DAB2FB681A707B6893F8EF
:100EAC002832012B01D102231CE07B68012283F83C
:100EBC0028227B681B68F968184602F06FFAFB78E9
:100ECC0003F00703002B08D17B681A687B6803F5D5
:100EDC000C731946104602F06DFB7B68002283F8F8
:100EEC002822002318461037BD4680BD80B584B03B
:100EFC0000AF78600B46FB70FB7803F00F027B6849
:100F0C005B689A4201D901233AE097F90330002B30
:100F1C000BDAFB7803F007035B0128337A68134480
:100F2C00FB60FB6801225A700BE0FB7803F00703AF
:100F3C005B0103F594737A681344FB60FB68002231
:100F4C005A70FB6800229A70FB7803F00703DAB240
:100F5C00FB681A707B6893F82832012B01D10223AD
:100F6C000EE07B68012283F828227B681B68F968F5
:100F7C00184602F055FA7B68002283F828220023D9
:100F8C0018461037BD4680BD90B589B000AF78606B
:100F9C0082E27B681B68B3F84430FB82FB8ADBB2CD
:100FAC0003F00F037B757B7D002B40F04281FB8AA5
:100FBC0003F01003002B51D17B681B681B889BB27C
:100FCC0023F4E14323F070039CB27B681A686FEA48
:100FDC0044436FEA53439BB213807B682833FB6016
:100FEC007B681B68B3F850309BB21A46FB681B78C1
:100FFC00DB00134402335B007A681268134403F578
:10100C0080631B88C3F30902FB68DA61FB685A69C9
:10101C00FB68DB691A44FB685A610021786805F0AB
:10102C009FF87B6893F82430DBB2002B00F03482FD
:10103C00FB689B69002B40F02F827B6893F824306F
:10104C00DBB263F07F03DAB27B681B6892B2A3F861
:10105C004C207B68002283F824201DE27B6803F57A
:10106C009473FB607B681B681B887B827B8A03F410
:10107C000063002B33D07B681B68B3F850309BB2F5
:10108C001A46FB681B78DB00134406335B007A6856
:10109C001268134403F580631B88C3F30902FB68D1
:1010AC00DA617B6818687B6803F50C71FB68DA8879
:1010BC00FB68DB699BB202F0CCFA7B681B681B886F
:1010CC009AB240F68F7313409CB27B681B6844F055
:1010DC00800292B21A80786805F018F8DCE1B7F952
:1010EC001230002B80F2D8817B681B681B889AB267
:1010FC0040F68F7313409CB27B681B6844F08002EF
:10110C0092B21A807B681B68B3F850309BB21A46B7
:10111C00FB681B78DB00134406335B007A681268AB
:10112C00134403F580631B88C3F30902FB68DA617F
:10113C00FB68DB69002B19D0FB685B69002B15D0B1
:10114C007B681868FB685969FB68DA88FB68DB699F
:10115C009BB202F07EFAFB685A69FB68DB691A44A1
:10116C00FB685A610021786804F0E2FF7B681B6819
:10117C001C467B681B68B3F850309BB21C4404F2CD
:10118C000C431C46FB681B69002B0ED123889BB2B9
:10119C0023F4F8439BB2238023889BB26FEA43432A
:1011AC006FEA53439BB223802DE0FB681B693E2BF7
:1011BC0012D8FB681B695B08BB61FB681B6903F0F9
:1011CC000103002B02D0BB690133BB61BB699BB22D
:1011DC009B029BB2238016E0FB681B695B09BB6119
:1011EC00FB681B6903F01F03002B02D1BB69013B99
:1011FC00BB61BB699BB29B029BB26FEA43436FEA34
:10120C0053439BB223807B681B681B889BB223F4DF
:10121C00804323F070039CB284F480539CB284F41A
:10122C0000539CB27B681A68A24B23439BB2138079
:10123C0032E17B681B681A467B7D9B0013441B883C
:10124C007B82B7F91230002B80F2D1807B681B684F
:10125C001A467B7D9B0013441B889AB240F68F7311
:10126C0013409CB27B681B681A467B7D9B00134421
:10127C0044F0800292B21A807B7D5B0103F594737B
:10128C007A681344FB60FB681B7B002B21D17B68C5
:10129C001B68B3F850309BB21A46FB681B78DB0016
:1012AC00134406335B007A681268134403F58063B9
:1012BC001B88C3F30903FB83FB8B002B72D07B6869
:1012CC001868FB685969FB68DA88FB8B02F0C1F976
:1012DC0068E07B681B681A46FB681B789B0013440C
:1012EC001B889BB203F48043002B21D07B681B68C6
:1012FC00B3F850309BB21A46FB681B78DB001344E2
:10130C0002335B007A681268134403F580631B8810
:10131C00C3F30903FB83FB8B002B2AD07B68186873
:10132C00FB685969FB681A89FB8B02F092F920E083
:10133C007B681B68B3F850309BB21A46FB681B786D
:10134C00DB00134406335B007A681268134403F520
:10135C0080631B88C3F30903FB83FB8B002B08D032
:10136C007B681868FB685969FB685A89FB8B02F02B
:10137C0070F97B681B681A46FB681B789B0013444A
:10138C001B889BB223F4E04323F070039CB27B6870
:10139C001B681A46FB681B789B001A44464B234378
:1013AC009BB21380FB68DA69FB8B1A44FB68DA6129
:1013BC00FB685A69FB8B1A44FB685A61FB689B6992
:1013CC00002B04D0FA8BFB681B699A4206D2FB688F
:1013DC001B781946786804F0ABFE08E0FB681978B6
:1013EC00FB685A69FB689B697868FFF7B2FC7B8ADB
:1013FC0003F08003002B4FD07B7D5B0128337A6890
:10140C001344FB607B681B681A467B7D9B0013446E
:10141C001B889BB223F4E14323F070039CB27B68DE
:10142C001B681A467B7D9B001A446FEA44436FEAA3
:10143C0053439BB213807B681B68B3F850309BB24C
:10144C001A46FB681B78DB00134402335B007A6896
:10145C001268134403F580631B88C3F30902FB680D
:10146C00DA61FB685A69FB68DB691A44FB685A61EC
:10147C00FB689B69002B06D1FB681B7819467868C2
:10148C0004F06EFE08E0FB681978FB685A69FB688B
:10149C009B697868FFF797FC7B681B68B3F844304E
:1014AC009BB21BB2002BFFF674AD002318462437F9
:1014BC00BD4690BD8080FFFFC080FFFF80B487B029
:1014CC0000AFF8607B600B467B8113463B817B89C8
:1014DC0003F080039BB2002B08D07B8903F0070339
:1014EC005B012833FA6813447B6106E07B895B015E
:1014FC0003F59473FA6813447B613B89002B07D185
:10150C007B6900221A737B689AB27B69DA800BE0E4
:10151C007B6901221A737B689AB27B691A817B689A
:10152C001B0C9AB27B695A81002318461C37BD46A6
:10153C0080BC704780B586B000AF78607B68002BAC
:10154C0001D101236CE27B681B6803F00103002BC3
:10155C0000F08780924B5B6803F00C03042B0CD0DB
:10156C008F4B5B6803F00C03082B12D18C4B5B6820
:10157C0003F48033B3F5803F0BD1894B1B6803F424
:10158C000033002B6CD07B685B68002B68D1012387
:10159C0046E27B685B68B3F5803F06D1804B1B68E5
:1015AC007F4A43F4803313602EE07B685B68002B2A
:1015BC000CD17B4B1B687A4A23F480331360784B35
:1015CC001B68774A23F4802313601DE07B685B68FB
:1015DC00B3F5A02F0CD1724B1B68714A43F48023D6
:1015EC0013606F4B1B686E4A43F4803313600BE03F
:1015FC006B4B1B686A4A23F480331360684B1B687F
:10160C00674A23F4802313607B685B68002B13D03C
:10161C00FEF700FE386108E0FEF7FCFD02463B6970
:10162C00D31A642B01D90323FAE15D4B1B6803F435
:10163C000033002BF0D014E0FEF7ECFD386108E02D
:10164C00FEF7E8FD02463B69D31A642B01D903234C
:10165C00E6E1534B1B6803F40033002BF0D100E0A0
:10166C0000BF7B681B6803F00203002B63D04C4B5C
:10167C005B6803F00C03002B0BD0494B5B6803F049
:10168C000C03082B1CD1464B5B6803F48033002BF6
:10169C0016D1434B1B6803F00203002B05D07B686B
:1016AC001B69012B01D00123BAE13D4B1B6823F0D0
:1016BC00F8027B685B69DB00394913430B603AE045
:1016CC007B681B69002B20D0364B01221A60FEF779
:1016DC00A1FD386108E0FEF79DFD02463B69D31A77
:1016EC00022B01D903239BE12D4B1B6803F0020352
:1016FC00002BF0D02A4B1B6823F0F8027B685B6947
:10170C00DB00274913430B6015E0264B00221A60BF
:10171C00FEF780FD386108E0FEF77CFD02463B6970
:10172C00D31A022B01D903237AE11D4B1B6803F05A
:10173C000203002BF0D17B681B6803F00803002B1D
:10174C003AD07B689B69002B19D0174B01221A6089
:10175C00FEF760FD386108E0FEF75CFD02463B6970
:10176C00D31A022B01D903235AE10D4B5B6A03F008
:10177C000203002BF0D0012000F0DCFA1CE00A4B35
:10178C0000221A60FEF746FD38610FE0FEF742FDBD
:10179C0002463B69D31A022B08D9032340E100BF50
:1017AC000010024000004242800442429E4B5B6AA1
:1017BC0003F00203002BE9D17B681B6803F00403E0
:1017CC00002B00F0A6800023FB75974BDB6903F020
:1017DC008053002B0DD1944BDB69934A43F080531B
:1017EC00D361914BDB6903F08053BB60BB68012371
:1017FC00FB758E4B1B6803F48073002B18D18B4B3D
:10180C001B688A4A43F480731360FEF703FD38614A
:10181C0008E0FEF7FFFC02463B69D31A642B01D9A2
:10182C000323FDE0814B1B6803F48073002BF0D085
:10183C007B68DB68012B06D17B4B1B6A7A4A43F031
:10184C00010313622DE07B68DB68002B0CD1764B17
:10185C001B6A754A23F001031362734B1B6A724AAD
:10186C0023F0040313621CE07B68DB68052B0CD1AE
:10187C006D4B1B6A6C4A43F0040313626A4B1B6A80
:10188C00694A43F0010313620BE0674B1B6A664A1B
:10189C0023F001031362644B1B6A634A23F00403B5
:1018AC0013627B68DB68002B15D0FEF7B3FC386144
:1018BC000AE0FEF7AFFC02463B69D31A41F28832CC
:1018CC00934201D90323ABE0574B1B6A03F002038D
:1018DC00002BEED014E0FEF79DFC38610AE0FEF719
:1018EC0099FC02463B69D31A41F28832934201D9E2
:1018FC00032395E04C4B1B6A03F00203002BEED143
:10190C00FB7D012B05D1484BDB69474A23F0805303
:10191C00D3617B68DB69002B00F08180424B5B68F4
:10192C0003F00C03082B61D07B68DB69022B46D1DA
:10193C003F4B00221A60FEF76DFC386108E0FEF7A1
:10194C0069FC02463B69D31A022B01D9032367E0D9
:10195C00354B1B6803F00073002BF0D17B681B6ABE
:10196C00B3F5803F08D1304B5B6823F400327B68C1
:10197C009B682D4913434B602B4B5B6823F474120B
:10198C007B68196A7B685B6A0B43274913434B607E
:10199C00274B01221A60FEF73DFC386108E0FEF788
:1019AC0039FC02463B69D31A022B01D9032337E0D9
:1019BC001D4B1B6803F00073002BF0D02FE01C4B69
:1019CC0000221A60FEF726FC386108E0FEF722FCC4
:1019DC0002463B69D31A022B01D9032320E0124B98
:1019EC001B6803F00073002BF0D118E07B68DB69F7
:1019FC00012B01D1012313E00B4B5B68FB60FB68EF
:101A0C0003F480327B681B6A9A4206D1FB6803F4AC
:101A1C0070127B685B6A9A4201D0012300E00023BC
:101A2C0018461837BD4680BD0010024000700040BB
:101A3C006000424280B584B000AF786039607B684A
:101A4C00002B01D10123D0E06A4B1B6803F0070384
:101A5C003A689A4210D9674B1B6823F00702654914
:101A6C003B6813430B60634B1B6803F007033A6836
:101A7C009A4201D00123B8E07B681B6803F0020393
:101A8C00002B20D07B681B6803F00403002B05D0CF
:101A9C00594B5B68584A43F4E06353607B681B689E
:101AAC0003F00803002B05D0534B5B68524A43F4F8
:101ABC0060535360504B5B6823F0F0027B689B686B
:101ACC004D4913434B607B681B6803F00103002BEB
:101ADC0040D07B685B68012B07D1474B1B6803F434
:101AEC000033002B15D101237FE07B685B68022B50
:101AFC0007D1414B1B6803F00073002B09D1012364
:101B0C0073E03D4B1B6803F00203002B01D1012352
:101B1C006BE0394B5B6823F003027B685B683649EA
:101B2C0013434B60FEF776FBF8600AE0FEF772FB9E
:101B3C000246FB68D31A41F28832934201D903233F
:101B4C0053E02D4B5B6803F00C027B685B689B00D9
:101B5C009A42EBD1274B1B6803F007033A689A4271
:101B6C0010D2244B1B6823F0070222493B68134315
:101B7C000B60204B1B6803F007033A689A4201D0B4
:101B8C00012332E07B681B6803F00403002B08D0B0
:101B9C00194B5B6823F4E0627B68DB6816491343DE
:101BAC004B607B681B6803F00803002B09D0124BB9
:101BBC005B6823F460527B681B69DB000E4913439E
:101BCC004B6000F021F801460B4B5B681B0903F0DE
:101BDC000F030A4AD35C21FA03F3094A1360094B39
:101BEC001B681846FEF7D4FA002318461037BD467A
:101BFC0080BD00BF002002400010024000750008AC
:101C0C00080100200000002090B48AB000AF2A4BDD
:101C1C003C1D0FCB84E80F00284B1B883B80002316
:101C2C00FB610023BB6100237B6200237B610023EB
:101C3C003B62234B5B68FB61FB6903F00C03042BD9
:101C4C0002D0082B03D02DE01E4B3B622DE0FB692C
:101C5C009B0C03F00F0307F12802134413F8243CE8
:101C6C007B61FB6903F48033002B13D0144B5B684E
:101C7C005B0C03F0010307F12802134413F8283C12
:101C8C00BB617B690F4A02FB03F2BB69B2FBF3F346
:101C9C007B6204E07B690C4A02FB03F37B627B6A88
:101CAC003B6202E0094B3B6200BF3B6A1846283797
:101CBC00BD4690BC704700BF10730008207300082D
:101CCC0000100240001BB70000093D0000127A0012
:101CDC0080B400AF024B1B681846BD4680BC7047F1
:101CEC000801002080B500AFFFF7F2FF0146054B5D
:101CFC005B681B0A03F00703034AD35C21FA03F366
:101D0C00184680BD001002401075000880B500AF69
:101D1C00FFF7DEFF0146054B5B68DB0A03F00703A8
:101D2C00034AD35C21FA03F3184680BD001002402D
:101D3C001075000880B485B000AF78600A4B1B6842
:101D4C000A4AA2FB03235B0A7A6802FB03F3FB60DB
:101D5C0000BFFB685A1EFA60002BF9D100BF143784
:101D6C00BD4680BC704700BF08010020D34D6210F7
:101D7C0080B586B000AF786000233B610023FB6028
:101D8C007B681B6803F00103002B7DD00023FB75DF
:101D9C004F4BDB6903F08053002B0DD14C4BDB69AF
:101DAC004B4A43F08053D361494BDB6903F08053BA
:101DBC00BB60BB680123FB75464B1B6803F4807347
:101DCC00002B18D1434B1B68424A43F480731360B9
:101DDC00FEF720FA386108E0FEF71CFA02463B6970
:101DEC00D31A642B01D903236DE03A4B1B6803F41F
:101DFC008073002BF0D0364B1B6A03F44073FB60EE
:101E0C00FB68002B2ED07B685B6803F44073FA6888
:101E1C009A4227D02E4B1B6A23F44073FB602E4B47
:101E2C0001221A602C4B00221A60294AFB681362AB
:101E3C00FB6803F00103002B14D0FEF7EBF93861BB
:101E4C000AE0FEF7E7F902463B69D31A41F2883201
:101E5C00934201D9032336E01D4B1B6A03F00203A6
:101E6C00002BEED01A4B1B6A23F440727B685B6824
:101E7C00174913430B62FB7D012B05D1144BDB6916
:101E8C00134A23F08053D3617B681B6803F0020371
:101E9C00002B08D00E4B5B6823F440427B689B6898
:101EAC000B4913434B607B681B6803F01003002B3A
:101EBC0008D0074B5B6823F480027B68DB6804491D
:101ECC0013434B60002318461837BD4680BD00BF36
:101EDC0000100240007000404004424280B582B0C5
:101EEC0000AF78607B68002B01D101233FE07B6859
:101EFC0093F83930DBB2002B06D17B68002283F8D3
:101F0C003820786803F0CCFF7B68242283F83920D2
:101F1C007B681B68DA687B681B6822F40052DA6005
:101F2C00786800F0B1F97B681B681A697B681B68DC
:101F3C0022F490421A617B681B685A697B681B68A3
:101F4C0022F02A025A617B681B68DA687B681B687E
:101F5C0042F40052DA607B680022DA637B6820224C
:101F6C0083F839207B68202283F83A200023184616
:101F7C000837BD4680BD80B588B002AFF860B96047
:101F8C003B601346FB8000237B61FB6893F8393080
:101F9C00DBB2202B40F08380BB68002B02D0FB8887
:101FAC00002B01D101237BE0FB6893F83830012B27
:101FBC0001D1022374E0FB68012283F83820FB680E
:101FCC000022DA63FB68212283F83920FEF722F91C
:101FDC007861FB68FA889A84FB68FA88DA8442E0B4
:101FEC00FB68DB8C9BB2013B9AB2FB68DA84FB6822
:101FFC009B68B3F5805F22D13B6800937B6900221C
:10200C008021F86800F0F6F80346002B01D003237A
:10201C0046E0BB683B613B691B881A46FB681B6842
:10202C00C2F308025A60FB681B69002B03D1BB6822
:10203C000233BB6017E0BB680133BB6013E03B6845
:10204C0000937B6900228021F86800F0D3F80346E6
:10205C00002B01D0032323E0BB685A1CBA601A780A
:10206C00FB681B685A60FB68DB8C9BB2002BB7D1FA
:10207C003B6800937B6900224021F86800F0BAF8B5
:10208C000346002B01D003230AE0FB68202283F8CF
:10209C003920FB68002283F83820002300E002235B
:1020AC0018461837BD4680BD80B588B002AFF860C1
:1020BC00B9603B601346FB8000237B61FB6893F89F
:1020CC003A30DBB2202B40F09080BB68002B02D062
:1020DC00FB88002B01D1012388E0FB6893F8383092
:1020EC00012B01D1022381E0FB68012283F8382007
:1020FC00FB680022DA63FB68222283F83A20FEF7A1
:10210C0089F87861FB68FA889A85FB68FA88DA8521
:10211C005CE0FB68DB8D9BB2013B9AB2FB68DA8515
:10212C00FB689B68B3F5805F2BD13B6800937B69A0
:10213C0000222021F86800F05DF80346002B01D046
:10214C00032353E0BB683B61FB681B69002B0CD17C
:10215C00FB681B685B689BB2C3F308039AB23B69CC
:10216C001A80BB680233BB6030E0FB681B685B689D
:10217C009BB2DBB29AB23B691A80BB680133BB607D
:10218C0024E03B6800937B6900222021F86800F072
:10219C0031F80346002B01D0032327E0FB681B69B1
:1021AC00002B08D1FB681B685968BB685A1CBA60C5
:1021BC00CAB21A700AE0FB681B685B68DAB2BB68CB
:1021CC00591CB96002F07F02D2B21A70FB68DB8D29
:1021DC009BB2002B9DD1FB68202283F83A20FB6830
:1021EC00002283F83820002300E002231846183719
:1021FC00BD4680BD80B584B000AFF860B9603B606F
:10220C001346FB712CE0BB69B3F1FF3F28D0BB69CF
:10221C00002B07D0FDF7FEFF02463B68D31ABA69C4
:10222C009A421DD2FB681B68DA68FB681B6822F4B3
:10223C00D072DA60FB681B685A69FB681B6822F075
:10224C0001025A61FB68202283F83920FB682022A6
:10225C0083F83A20FB68002283F8382003230FE030
:10226C00FB681B681A68BB681340BA689A420CBFBB
:10227C0001230023DBB21A46FB799A42C3D0002318
:10228C0018461037BD4680BD80B584B000AF78606D
:10229C007B681B681B6923F440517B68DA687B6898
:1022AC001B680A431A617B689A687B681B691A432E
:1022BC007B685B691343FB607B681B68DB6823F4FA
:1022CC00B05323F00C037A681268F9680B43D3609F
:1022DC007B681B685B6923F440717B689A697B6837
:1022EC001B680A435A617B681B68524A93424ED161
:1022FC00FFF70CFDB860BA6813469B0013449A00B4
:10230C001A447B685B689B00B2FBF3F34A4AA2FB5E
:10231C0003235B091901BA6813469B0013449A0006
:10232C001A447B685B689B00B2FBF3F2424BA3FB45
:10233C0002035B09642000FB03F3D31A1B01323345
:10234C003D4AA2FB03235B0903F0F0031944BA686E
:10235C0013469B0013449A001A447B685B689B00ED
:10236C00B2FBF3F2344BA3FB02035B09642000FBCA
:10237C0003F3D31A1B0132332F4AA2FB03235B094D
:10238C0003F00F027B681B680A449A604DE0FFF76C
:10239C00A9FCB860BA6813469B0013449A001A440F
:1023AC007B685B689B00B2FBF3F3234AA2FB03231D
:1023BC005B091901BA6813469B0013449A001A442E
:1023CC007B685B689B00B2FBF3F21B4BA3FB020325
:1023DC005B09642000FB03F3D31A1B013233164A4A
:1023EC00A2FB03235B0903F0F0031944BA681346FC
:1023FC009B0013449A001A447B685B689B00B2FBF9
:10240C00F3F20D4BA3FB02035B09642000FB03F307
:10241C00D31A1B013233084AA2FB03235B0903F0D6
:10242C000F027B681B680A449A6000BF1037BD46D8
:10243C0080BD00BF003801401F85EB5184B080B4D3
:10244C0083B000AF786007F1140080E80E00002321
:10245C0018460C37BD4680BC04B0704780B485B0BC
:10246C0000AF78604FF43F43FB817B68B3F840309A
:10247C009AB2FB8913439AB27B68A3F840200023DD
:10248C0018461437BD4680BC704780B485B000AF89
:10249C0078604FF43F43FB817B68B3F840309BB2CC
:1024AC001AB2B7F90E30DB431BB213401BB29AB20F
:1024BC007B68A3F84020002318461437BD4680BC27
:1024CC00704780B483B000AF78600B46FB7000237C
:1024DC0018460C37BD4680BC704784B080B582B0BE
:1024EC0000AF786007F1140080E80E007B680122D1
:1024FC00A3F840207B680022A3F840207B680022D0
:10250C00A3F844207B680022A3F850207868FFF7DA
:10251C00A5FF002318460837BD46BDE8804004B02F
:10252C007047000090B484B000AF7860396000232D
:10253C00FB737A683B681B789B0013441B889BB227
:10254C0023F4EC4323F07003BB813B68DB78032B53
:10255C0019D801A252F823F0752500088925000826
:10256C00992500087F250008BB8943F40073BB81C3
:10257C000DE0BB8943F4C063BB8108E0BB8943F425
:10258C008063BB8103E00123FB7300E000BF7A682A
:10259C003B681B789B001A44BB8943F07F4343F490
:1025AC007F0343F4004343F080039BB213807A68AB
:1025BC003B681B789B0013441B889BB223F4E043BD
:1025CC0023F070039AB23B681B789BB213439CB206
:1025DC007A683B681B789B001A448A4B23439BB256
:1025EC0013803B681B7B002B40F012813B685B78AF
:1025FC00002B67D07C687B68B3F850309BB21C44CE
:10260C003B681B781B01234403F580631C463B6825
:10261C00DB885B089BB25B009BB223807A683B68CB
:10262C001B789B0013441B889CB2234603F0400389
:10263C00002B14D07A683B681B789B0013441B88D2
:10264C009BB223F4E04323F070039CB27A683B689E
:10265C001B789B001A446C4B23439BB213803B6842
:10266C00DB78012B18D07A683B681B789B001344ED
:10267C001B889BB223F4E04323F040039CB284F00C
:10268C0020039CB27A683B681B789B001A445D4B14
:10269C0023439BB213802BE27A683B681B789B0028
:1026AC0013441B889BB223F4E04323F040039CB2F9
:1026BC007A683B681B789B001A44524B23439BB2AD
:1026CC00138015E27C687B68B3F850309BB21C44D5
:1026DC003B681B781B01234403F581631C463B6854
:1026EC00DB885B089BB25B009BB223807C687B68B9
:1026FC00B3F850309BB21C443B681B781B0123443D
:10270C0003F20C431C463B681B69002B0ED123883B
:10271C009BB223F4F8439BB2238023889BB26FEACD
:10272C0043436FEA53439BB223802DE03B681B6904
:10273C003E2B12D83B681B695B08BB603B681B696E
:10274C0003F00103002B02D0BB680133BB60BB68F4
:10275C009BB29B029BB2238016E03B681B695B0912
:10276C00BB603B681B6903F01F03002B02D1BB68E5
:10277C00013BBB60BB689BB29B029BB26FEA4343BD
:10278C006FEA53439BB223807A683B681B789B00AB
:10279C0013441B889CB2234603F48043002B14D0B3
:1027AC007A683B681B789B0013441B889BB223F40C
:1027BC00E04323F070039CB27A683B681B789B0063
:1027CC001A44124B23439BB213807A683B681B78E4
:1027DC009B0013441B889BB223F4804323F07003AB
:1027EC009CB284F480539CB284F400539CB27A68FB
:1027FC003B681B789B001A44024B23439BB213800B
:10280C0076E100BF8080FFFFC080FFFF80C0FFFF2C
:10281C007A683B681B789B0013441B889BB223F49B
:10282C00E04323F070039CB27A683B681B789B00F2
:10283C001A44964B23439BB213807C687B68B3F895
:10284C0050309BB21C443B681B781B01234403F59E
:10285C0080631C463B681B895B089BB25B009BB288
:10286C0023807C687B68B3F850309BB21C443B6877
:10287C001B781B01234403F581631C463B685B8971
:10288C005B089BB25B009BB223803B685B78002BA0
:10289C0040F088807A683B681B789B0013441B8847
:1028AC009CB2234603F48043002B14D07A683B6817
:1028BC001B789B0013441B889BB223F4E04323F04A
:1028CC0070039CB27A683B681B789B001A44704B6F
:1028DC0023439BB213807A683B681B789B0013449C
:1028EC001B889CB2234603F04003002B14D07A685B
:1028FC003B681B789B0013441B889BB223F4E0437A
:10290C0023F070039CB27A683B681B789B001A44D6
:10291C00604B23439BB213807A683B681B789B0007
:10292C0013441B889BB223F4E04323F070039CB246
:10293C007A683B681B789B001A44564B23439BB226
:10294C0013807A683B681B789B0013441B889BB2EE
:10295C0023F4804323F070039CB284F480539CB224
:10296C0084F400539CB27A683B681B789B001A4431
:10297C00494B23439BB213807A683B681B789B00BE
:10298C0013441B889BB223F4E04323F040039CB216
:10299C007A683B681B789B001A443F4B23439BB2DD
:1029AC001380A5E07A683B681B789B0013441B8856
:1029BC009CB2234603F48043002B14D07A683B6806
:1029CC001B789B0013441B889BB223F4E04323F039
:1029DC0070039CB27A683B681B789B001A442C4BA2
:1029EC0023439BB213807A683B681B789B0013448B
:1029FC001B889CB2234603F04003002B14D07A684A
:102A0C003B681B789B0013441B889BB223F4E04368
:102A1C0023F070039CB27A683B681B789B001A44C5
:102A2C001C4B23439BB213807A683B681B789B003A
:102A3C0013441B889BB223F4E04323F070039CB235
:102A4C007A683B681B789B001A44114B23439BB25A
:102A5C0013803B68DB78012B20D07A683B681B78AD
:102A6C009B0013441B889BB223F4E04323F04003E8
:102A7C009CB284F020039CB27A683B681B789B0064
:102A8C001A44054B23439BB213801CE08081FFFF4B
:102A9C0080C0FFFFC080FFFF8080FFFF7A683B682B
:102AAC001B789B0013441B889BB223F4E04323F058
:102ABC0040039CB27A683B681B789B001A440F4B0E
:102ACC0023439BB213807A683B681B789B001344AA
:102ADC001B889BB223F4804323F070039CB27A686A
:102AEC003B681B789B001A44044B23439BB2138016
:102AFC00FB7B18461037BD4690BC70478080FFFFAB
:102B0C0090B482B000AF786039603B681B7B002BBF
:102B1C0071D13B685B78002B36D07A683B681B78A8
:102B2C009B0013441B889CB2234603F04003002BEC
:102B3C0014D07A683B681B789B0013441B889BB2AB
:102B4C0023F4E04323F070039CB27A683B681B7853
:102B5C009B001A446B4B23439BB213807A683B68EF
:102B6C001B789B0013441B889BB223F4E04323F097
:102B7C0040039CB27A683B681B789B001A44624BFA
:102B8C0023439BB2138044E17A683B681B789B001B
:102B9C0013441B889CB2234603F48043002B14D0AF
:102BAC007A683B681B789B0013441B889BB223F408
:102BBC00E04323F070039CB27A683B681B789B005F
:102BCC001A44524B23439BB213807A683B681B78A0
:102BDC009B0013441B889BB223F4804323F07003A7
:102BEC009CB27A683B681B789B001A44464B234383
:102BFC009BB213800DE13B685B78002B40F0888022
:102C0C007A683B681B789B0013441B889CB2234654
:102C1C0003F48043002B14D07A683B681B789B002C
:102C2C0013441B889BB223F4E04323F070039CB243
:102C3C007A683B681B789B001A44344B23439BB245
:102C4C0013807A683B681B789B0013441B889CB2EA
:102C5C00234603F04003002B14D07A683B681B78A2
:102C6C009B0013441B889BB223F4E04323F07003B6
:102C7C009CB27A683B681B789B001A44214B234317
:102C8C009BB213807A683B681B789B0013441B88AB
:102C9C009BB223F4E04323F070039CB27A683B6848
:102CAC001B789B001A44174B23439BB213807A6802
:102CBC003B681B789B0013441B889BB223F4804316
:102CCC0023F070039CB27A683B681B789B001A4413
:102CDC000D4B23439BB213807A683B681B789B0097
:102CEC0013441B889BB223F4E04323F040039CB2B3
:102CFC007A683B681B789B001A44034B23439BB2B6
:102D0C00138086E0C080FFFF8080FFFF80C0FFFF44
:102D1C007A683B681B789B0013441B889CB2234643
:102D2C0003F48043002B14D07A683B681B789B001B
:102D3C0013441B889BB223F4E04323F070039CB232
:102D4C007A683B681B789B001A44354B23439BB233
:102D5C0013807A683B681B789B0013441B889CB2D9
:102D6C00234603F04003002B14D07A683B681B7891
:102D7C009B0013441B889BB223F4E04323F07003A5
:102D8C009CB27A683B681B789B001A44254B234302
:102D9C009BB213807A683B681B789B0013441B889A
:102DAC009BB223F4E04323F070039CB27A683B6837
:102DBC001B789B001A441A4B23439BB213807A68EE
:102DCC003B681B789B0013441B889BB223F4E043A5
:102DDC0023F040039CB27A683B681B789B001A4432
:102DEC00114B23439BB213807A683B681B789B0082
:102DFC0013441B889BB223F4804323F070039CB2D2
:102E0C007A683B681B789B001A44074B23439BB2A0
:102E1C001380002318460837BD4690BC704700BF8E
:102E2C0080C0FFFFC080FFFF8080FFFF90B58DB09A
:102E3C0000AF786039603B685B78012B40F06081B3
:102E4C003B689A693B681B699A4209D93B681B69C4
:102E5C00BB623B689A69BB6AD21A3B689A6105E00F
:102E6C003B689B69BB623B6800229A613B681B7B99
:102E7C00002B19D13B6859693B68DA88BB6A9BB255
:102E8C00786800F0A2FB7C687B68B3F850309BB28A
:102E9C001C443B681B781B01234403F204431C466F
:102EAC00BB6A9BB223800FE17A683B681B789B005E
:102EBC0013441B889BB203F04003002B65D07C6845
:102ECC003B685B78002B48D17C687B68B3F850304A
:102EDC009BB21C443B681B781B01234403F20C433C
:102EEC001C46BB6A002B0ED123889BB223F4F843FB
:102EFC009BB2238023889BB26FEA43436FEA534310
:102F0C009BB223803DE0BB6A3E2B10D8BB6A5B08AA
:102F1C007B62BB6A03F00103002B02D07B6A013396
:102F2C007B627B6A9BB29B029BB2238029E0BB6ACB
:102F3C005B097B62BB6A03F01F03002B02D17B6A27
:102F4C00013B7B627B6A9BB29B029BB26FEA434361
:102F5C006FEA53439BB2238013E03B685B78012BF1
:102F6C000FD17B68B3F850309BB21C443B681B7884
:102F7C001B01234403F20C43FB60BB6A9AB2FB684F
:102F8C001A803B685B89FB8563E03B685B78002BB0
:102F9C0048D17C687B68B3F850309BB21C443B68CA
:102FAC001B781B01234403F204431C46BB6A002B11
:102FBC000ED123889BB223F4F8439BB22380238841
:102FCC009BB26FEA43436FEA53439BB223803DE0CD
:102FDC00BB6A3E2B10D8BB6A5B083B62BB6A03F032
:102FEC000103002B02D03B6A01333B623B6A9BB26C
:102FFC009B029BB2238029E0BB6A5B093B62BB6AE4
:10300C0003F01F03002B02D13B6A013B3B623B6A7E
:10301C009BB29B029BB26FEA43436FEA53439BB252
:10302C00238013E03B685B78012B0FD17C687B68B5
:10303C00B3F850309BB21C443B681B781B012344F3
:10304C0003F204431C46BB6A9BB223803B681B897A
:10305C00FB853B685969BB6A9BB2FA8D786800F0B6
:10306C00B4FA3B685B78002B15D17A683B681B7807
:10307C009B0013441B889BB223F4E04323F07003A2
:10308C009CB27A683B681B789B001A449A4B23438A
:10309C009BB2138018E03B685B78012B14D17A68E3
:1030AC003B681B789B0013441B889BB223F4E043C2
:1030BC0023F070039CB27A683B681B789B001A441F
:1030CC008E4B23439BB213807A683B681B789B0022
:1030DC0013441B889BB223F4E04323F040039CB2BF
:1030EC0084F010039CB284F020039CB27A683B6895
:1030FC001B789B001A44824B23439BB2138046E1FE
:10310C003B689A693B681B699A4209D93B681B6901
:10311C00BB623B689A69BB6AD21A3B689A6105E04C
:10312C003B689B69BB623B6800229A613B681B7BD6
:10313C00002B48D17C687B68B3F850309BB21C44A0
:10314C003B681B781B01234403F20C431C46BB6AEF
:10315C00002B0ED123889BB223F4F8439BB223801F
:10316C0023889BB26FEA43436FEA53439BB223809D
:10317C00F2E0BB6A3E2B10D8BB6A5B08FB61BB6AF2
:10318C0003F00103002B02D0FB690133FB61FB69E7
:10319C009BB29B029BB22380DEE0BB6A5B09FB61A6
:1031AC00BB6A03F01F03002B02D1FB69013BFB61DF
:1031BC00FB699BB29B029BB26FEA43436FEA53439A
:1031CC009BB22380C8E03B685B78002B48D17C68BD
:1031DC007B68B3F850309BB21C443B681B781B01D6
:1031EC00234403F204431C46BB6A002B0ED12388F4
:1031FC009BB223F4F8439BB2238023889BB26FEAE3
:10320C0043436FEA53439BB223803DE0BB6A3E2BA2
:10321C0010D8BB6A5B08BB61BB6A03F00103002BCF
:10322C0002D0BB690133BB61BB699BB29B029BB2F1
:10323C00238029E0BB6A5B09BB61BB6A03F01F03F7
:10324C00002B02D1BB69013BBB61BB699BB29B02EA
:10325C009BB26FEA43436FEA53439BB2238013E064
:10326C003B685B78012B0FD17C687B68B3F85030DE
:10327C009BB21C443B681B781B01234403F20443A0
:10328C001C46BB6A9BB223807C683B685B78002B36
:10329C004ED17C687B68B3F850309BB21C443B68C1
:1032AC001B781B01234403F20C431C46BB6A002B06
:1032BC000ED123889BB223F4F8439BB2238023883E
:1032CC009BB26FEA43436FEA53439BB2238043E0C4
:1032DC00BB6A3E2B16D8BB6A5B087B61BB6A03F0EA
:1032EC000103002B02D07B6901337B617B699BB2AC
:1032FC009B029BB223802FE0C080FFFF80C0FFFFAA
:10330C008080FFFFBB6A5B097B61BB6A03F01F0314
:10331C00002B02D17B69013B7B617B699BB29B02D9
:10332C009BB26FEA43436FEA53439BB2238013E093
:10333C003B685B78012B0FD17B68B3F850309BB2A4
:10334C001C443B681B781B01234403F20C433B6178
:10335C00BB6A9AB23B691A807A683B681B789B00FF
:10336C0013441B889BB223F4804323F070039CB25C
:10337C0084F480539CB284F400539CB27A683B680A
:10338C001B789B001A44044B23439BB213800023ED
:10339C0018463437BD4690BD8080FFFF90B482B094
:1033AC0000AF786039603B685B78002B18D07A6886
:1033BC003B681B789B0013441B889BB223F4E043AF
:1033CC0023F040039CB284F010039CB27A683B68F3
:1033DC001B789B001A44114B23439BB2138017E0BC
:1033EC007A683B681B789B0013441B889BB223F4C0
:1033FC00804323F070039CB284F480539CB27A68AF
:10340C003B681B789B001A44044B23439BB21380EC
:10341C00002318460837BD4690BC70478080FFFFDC
:10342C0090B482B000AF786039603B681B7B002B96
:10343C007DD13B685B78002B3DD07A683B681B786C
:10344C009B0013441B889CB2234603F04003002BC3
:10345C0014D07A683B681B789B0013441B889BB282
:10346C0023F4E04323F070039CB27A683B681B782A
:10347C009B001A44314B23439BB213803B68DB788F
:10348C00012B54D07A683B681B789B0013441B8833
:10349C009BB223F4E04323F040039CB284F020035E
:1034AC009CB27A683B681B789B001A44244B2343DC
:1034BC009BB213803BE07A683B681B789B001344FB
:1034CC001B889CB2234603F48043002B14D07A68EB
:1034DC003B681B789B0013441B889BB223F4E0438E
:1034EC0023F070039CB27A683B681B789B001A44EB
:1034FC00144B23439BB213807A683B681B789B0068
:10350C0013441B889BB223F4804323F070039CB2BA
:10351C0084F480539CB284F400539CB27A683B6868
:10352C001B789B001A44064B23439BB21380002349
:10353C0018460837BD4690BC704700BFC080FFFFDF
:10354C008080FFFF80C0FFFF80B483B000AF786045
:10355C000B46FB70FB78002B03D17B688022A3F811
:10356C004C20002318460C37BD4680BC704780B4F5
:10357C0083B000AF7860002318460C37BD4680BC82
:10358C00704780B483B000AF7860002318460C37C6
:10359C00BD4680BC704780B485B000AF78607B6856
:1035AC00B3F844309BB2FB60FB6818461437BD4639
:1035BC0080BC704780B483B000AF78603960002362
:1035CC0018460C37BD4680BC704780B48DB000AF38
:1035DC00F860B96011461A460B46FB801346BB8057
:1035EC00BB8801335B083B62FB68FB61BB687B6299
:1035FC00FB885A00FB69134403F58063BB623B6A8A
:10360C00FB621EE07B6A1B78BB617B6A01337B62C9
:10361C007B6A1B789BB21B029BB21A46BB69134395
:10362C007B617B699AB2BB6A1A80BB6A0233BB624C
:10363C00BB6A0233BB627B6A01337B62FB6A013B70
:10364C00FB62FB6A002BDDD100BF3437BD4680BC6A
:10365C00704780B48BB000AFF860B96011461A4661
:10366C000B46FB801346BB80BB885B089BB2BB61DF
:10367C00FB687B61BB68FB61FB885A007B69134468
:10368C0003F580633B62BB697B621BE03B6A1B8872
:10369C009BB23B613B6A02333B623B69DAB2FB692A
:1036AC001A70FB690133FB613B691B0ADAB2FB69D7
:1036BC001A70FB690133FB613B6A02333B627B6A24
:1036CC00013B7B627B6A002BE0D1BB8803F00103DA
:1036DC009BB2002B07D03B6A1B889BB23B613B69BA
:1036EC00DAB2FB691A7000BF2C37BD4680BC70473C
:1036FC0080B584B000AF78600B46FB700023FB7381
:10370C00402303228121786802F001FE7B680122AC
:10371C00DA62402303220121786802F0F8FD7B680D
:10372C000122C3F86C21542002F0FEFE02467B6895
:10373C00C3F8B8227B68D3F8B832002B02D101232E
:10374C00FB7312E07B68D3F8B832BB60BB68002215
:10375C0083F850207B68D3F8BC325B689847BA6812
:10376C0040230121786802F0BCFEFB7B1846103721
:10377C00BD4680BD80B582B000AF78600B46FB7053
:10378C008121786802F0E9FD7B680022DA62012170
:10379C00786802F0E2FD7B680022C3F86C217B683C
:1037AC00D3F8B832002B0ED07B68D3F8BC329B68B0
:1037BC0098477B68D3F8B832184602F0C1FE7B6894
:1037CC000022C3F8B822002318460837BD4680BD36
:1037DC0080B588B000AF786039607B68D3F8B832B8
:1037EC003B610023FB830023BB610023FB8100238F
:1037FC00FB753B681B7803F06003002B51D0202B2A
:10380C0040F0D8803B685B78023B092B41D801A281
:10381C0052F823F079380008573800089F38000810
:10382C009F3800089F3800089F3800089F38000810
:10383C008938000867380008493800083B685B88FD
:10384C00DBB21A463B691A642AE03B694033012219
:10385C001946786801F092F922E03B685B881B0AF4
:10386C009BB2DBB21A463B695A6419E03B6944339C
:10387C0001221946786801F081F911E03B690122B7
:10388C00DA6439693B68DB881A46786801F0A4F978
:10389C0006E03968786801F007F90223FB7500BF70
:1038AC008FE03B685B780B2B7CD801A252F823F09D
:1038BC00ED380008B1390008B1390008B1390008F9
:1038CC00B1390008B139000815390008B1390008C0
:1038DC00B1390008B1390008633900088B39000888
:1038EC007B6893F89C32032B07D107F10E0302225D
:1038FC001946786801F042F95BE03968786801F0A4
:10390C00D3F80223FB7554E03B685B881B0A9BB21F
:10391C00222B0BD13B68DB88212B28BF2123FB8377
:10392C007B68D3F8BC321B68BB610DE03B685B88DD
:10393C001B0A9BB2212B07D1244BBB613B68DB8854
:10394C00212B28BF2123FB83FB8B1A46B96978688E
:10395C0001F014F92DE07B6893F89C32032B07D10E
:10396C003B69483301221946786801F007F920E0D9
:10397C003968786801F098F80223FB7519E07B68C8
:10398C0093F89C32032B06D13B685B88DBB21A465A
:10399C003B699A640DE03968786801F085F8022378
:1039AC00FB7506E03968786801F07EF80223FB7538
:1039BC0000BF06E03968786801F076F80223FB75E1
:1039CC0000BFFB7D18462037BD4680BDC4000020DB
:1039DC0080B586B000AFF860B9601346FB80FB6819
:1039EC00D3F8B8327B61FB6893F89C32032B11D16E
:1039FC007B6993F85030002B0AD17B69012283F844
:103A0C005020FB88BA688121F86802F047FD01E07C
:103A1C00012300E0002318461837BD4680BD000086
:103A2C0080B483B000AF78607B6829221A80034B86
:103A3C0018460C37BD4680BC704700BF40000020C4
:103A4C0080B483B000AF78607B6829221A80034B66
:103A5C0018460C37BD4680BC704700BF6C00002078
:103A6C0080B483B000AF78607B6829221A80034B46
:103A7C0018460C37BD4680BC704700BF980000202C
:103A8C0080B483B000AF78600B46FB707B68D3F8D2
:103A9C00B832002283F85020002318460C37BD465C
:103AAC0080BC704780B584B000AF78600B46FB706B
:103ABC007B68D3F8B832FB607B68D3F8BC32DB6828
:103ACC00FA681078FA68527811469847FA684023D9
:103ADC000121786802F005FD002318461037BD4619
:103AEC0080BD80B584B000AF78607B68D3F8B83205
:103AFC00FB60FB68DB6C012B0CD17B68D3F8BC3210
:103B0C00DB68FA681078FA68527811469847FB68B7
:103B1C000022DA64002318461037BD4680BD000031
:103B2C0080B483B000AF78607B680A221A80034BA4
:103B3C0018460C37BD4680BC704700BFE80000201B
:103B4C0080B485B000AF786039600223FB733B68AA
:103B5C00002B05D07B683A68C3F8BC220023FB73AA
:103B6C00FB7B18461437BD4680BC704780B584B0CB
:103B7C0000AFF860B9601346FB71FB68002B01D1F4
:103B8C0002231AE0FB68D3F8B432002B03D0FB6895
:103B9C000022C3F8B422BB68002B03D0FB68BA68C0
:103BAC00C3F8B022FB68012283F89C22FB68FA79E7
:103BBC001A70F86802F040FB002318461037BD4617
:103BCC0080BD80B485B000AF786039600023FB7392
:103BDC003B68002B06D07B683A68C3F8B4220023FC
:103BEC00FB7301E00223FB73FB7B18461437BD46C5
:103BFC0080BC704780B582B000AF7860786802F006
:103C0C006BFB002318460837BD4680BD80B483B0DB
:103C1C0000AF7860002318460C37BD4680BC704757
:103C2C0080B584B000AF78600B46FB700223FB7349
:103C3C007B68D3F8B432002B0CD07B68D3F8B43249
:103C4C001B68FA781146786898470346002B01D117
:103C5C000023FB73FB7B18461037BD4680BD80B537
:103C6C0082B000AF78600B46FB707B68D3F8B4323F
:103C7C005B68FA781146786898470023184608372D
:103C8C00BD4680BD80B582B000AF786039607B687E
:103C9C0003F52A733968184600F0CAFE7B680122C6
:103CAC00C3F894227B68B3F8AE321A467B68C3F82B
:103CBC0098227B6893F8A83203F01F03012B0CD0D9
:103CCC00012B02D3022B10D017E07B6803F52A736B
:103CDC001946786800F0CAF91AE07B6803F52A7374
:103CEC001946786800F02CFA12E07B6803F52A7309
:103CFC001946786800F06AFA0AE07B6893F8A832F3
:103D0C0023F07F03DBB21946786802F045FB00BF55
:103D1C00002318460837BD4680BD80B586B000AF7D
:103D2C00F8600B467A60FB72FB7A002B4BD1FB6878
:103D3C0003F5AA737B61FB68D3F89432032B34D15F
:103D4C007B69DA687B691B699A4219D97B69DA68E5
:103D5C007B691B69D21A7B69DA607B69DA687B69DB
:103D6C001B699A4203D27B69DB689BB202E07B69D8
:103D7C001B699BB21A467968F86800F04BFF38E073
:103D8C00FB68D3F8B4321B69002B0AD0FB6893F89C
:103D9C009C32032B05D1FB68D3F8B4321B69F8684D
:103DAC009847F86800F048FF23E0FB68D3F894329A
:103DBC00052B1ED1FB680022C3F894220021F86861
:103DCC0002F0EAFA15E0FB68D3F8B4329B69002BD9
:103DDC000DD0FB6893F89C32032B08D1FB68D3F809
:103DEC00B4329B69FA7A1146F868984701E00223CD
:103DFC0000E0002318461837BD4680BD80B586B05C
:103E0C0000AFF8600B467A60FB72FB7A002B7FD117
:103E1C00FB6814337B61FB68D3F89432022B5CD1C2
:103E2C007B69DA687B691B699A4215D97B69DA6808
:103E3C007B691B69D21A7B69DA607B69DB689BB290
:103E4C001A467968F86800F0B5FE002300220021BC
:103E5C00F86802F046FB4EE07B699B687A69126950
:103E6C00B3FBF2F102FB01F29B1A002B1CD17B6914
:103E7C009A687B691B699A4216D37B699A68FB68BE
:103E8C00D3F898329A420FD200220021F86800F041
:103E9C0091FEFB680022C3F8982200230022002127
:103EAC00F86802F01EFB26E0FB68D3F8B432DB683E
:103EBC00002B0AD0FB6893F89C32032B05D1FB68CE
:103ECC00D3F8B432DB68F86898478021F86802F0C0
:103EDC0063FAF86800F0C3FE0DE0FB68D3F8943287
:103EEC00042B04D0FB68D3F89432002B03D180212F
:103EFC00F86802F051FAFB6893F8A032012B1DD13F
:103F0C00F868FFF783FEFB68002283F8A02215E017
:103F1C00FB68D3F8B4325B69002B0DD0FB6893F8C7
:103F2C009C32032B08D1FB68D3F8B4325B69FA7A64
:103F3C001146F868984701E0022300E00023184678
:103F4C001837BD4680BD80B582B000AF7860402385
:103F5C0000220021786802F0DAF97B680122C3F8AC
:103F6C0058217B684022C3F8642140230022802121
:103F7C00786802F0CCF97B6801229A617B68402258
:103F8C005A627B68012283F89C227B680022C3F86A
:103F9C0094227B6800225A607B680022C3F8A4221A
:103FAC007B68D3F8B832002B09D07B68D3F8B432D5
:103FBC005B687A685268D2B21146786898470023D9
:103FCC0018460837BD4680BD80B483B000AF78601A
:103FDC000B46FB707B68FA781A74002318460C3772
:103FEC00BD4680BC704780B483B000AF78607B68FE
:103FFC0093F89C227B6883F89D227B68042283F8CB
:10400C009C22002318460C37BD4680BC704780B4F8
:10401C0083B000AF78607B6893F89C32042B05D199
:10402C007B6893F89D227B6883F89C2200231846BA
:10403C000C37BD4680BC704780B582B000AF78604D
:10404C007B6893F89C32032B0BD17B68D3F8B4328A
:10405C00DB69002B05D07B68D3F8B432DB69786858
:10406C009847002318460837BD4680BD80B584B0FC
:10407C0000AF786039600023FB733B681B7803F05A
:10408C006003202B04D0402B02D0002B08D04CE036
:10409C007B68D3F8B4329B6839687868984749E0F4
:1040AC003B685B78092B3AD801A252F823F000BF89
:1040BC000D410008214100082B4100081741000860
:1040CC002B410008EF400008E54000082B41000898
:1040DC0003410008F94000083968786800F0D4F909
:1040EC0022E03968786800F037FB1DE039687868A1
:1040FC0000F074FB18E03968786800F0FDFB13E001
:10410C003968786800F02CFC0EE03968786800F0AB
:10411C005AFC09E03968786800F069FC04E03968F9
:10412C00786800F0C1FC00BF04E03968786800F0E2
:10413C00BBFC00BFFB7B18461037BD4680BD00BFE3
:10414C0080B584B000AF786039600023FB733B68A6
:10415C001B7803F06003202B03D0402B01D0002BE5
:10416C002AD17B6893F89C32013B022B1DD83B680B
:10417C009B88DBB2012B13D87B68D3F8B4329B68D5
:10418C003968786898470346FB733B68DB88002BDB
:10419C0010D1FB7B002B0DD1786800F04DFD09E0B0
:1041AC003968786800F080FC04E03968786800F0C1
:1041BC007BFC00E000BF04E03968786800F074FC18
:1041CC0000BF002318461037BD4680BD80B584B0B3
:1041DC0000AF786039600023FB733B689B88BB732E
:1041EC003B681B7803F06003202B04D0402B02D0DB
:1041FC00002B08D03DE17B68D3F8B4329B6839685A
:10420C00786898473AE13B681B7803F06003202BF1
:10421C000AD17B68D3F8B4329B68396878689847C0
:10422C000346FB73FB7B2AE13B685B78012B3ED09A
:10423C00032B02D0002B70D015E17B6893F89C32D5
:10424C00022B02D0032B15D02BE0BB7B002B0CD008
:10425C00BB7B802B09D0BB7B1946786802F09CF89D
:10426C008021786802F098F820E03968786800F0CE
:10427C001BFC1BE03B685B88002B0ED1BB7B002B2F
:10428C000BD0BB7B802B08D03B68DB88002B04D188
:10429C00BB7B1946786802F07FF8786800F0CCFC9C
:1042AC0004E03968786800F0FFFB00BFE0E07B6851
:1042BC0093F89C32022B02D0032B15D026E0BB7B4B
:1042CC00002B0CD0BB7B802B09D0BB7B19467868AC
:1042DC0002F062F88021786802F05EF81CE0396820
:1042EC00786800F0E1FB17E03B685B88002B12D18B
:1042FC00BB7B03F07F03002B04D0BB7B1946786893
:10430C0002F069F8786800F097FC04E03968786886
:10431C0000F0CAFB00E000BFAAE07B6893F89C3277
:10432C00022B02D0032B32D097E0BB7B002B07D0A3
:10433C00BB7B802B04D03968786800F0B5FB91E02A
:10434C0097F90E30002B0BDABB7B03F07F02134680
:10435C009B0013449B0010337A68134404330BE026
:10436C00BB7B03F07F0213469B0013449B0003F5B9
:10437C00A8737A6813440433BB60BB6800221A60CC
:10438C00BB6802221946786800F0F8FB6AE097F9DE
:10439C000E30002B11DABB7B03F00F027968134649
:1043AC009B0013449B000B4418331B68002B17D144
:1043BC003968786800F078FB54E0BB7B03F00F029F
:1043CC00796813469B0013449B000B4403F5AC73B4
:1043DC001B68002B04D13968786800F065FB41E05C
:1043EC0097F90E30002B0BDABB7B03F07F021346E0
:1043FC009B0013449B0010337A68134404330BE086
:10440C00BB7B03F07F0213469B0013449B0003F518
:10441C00A8737A6813440433BB60BB7B002B02D0B7
:10442C00BB7B802B03D1BB6800221A600EE0BB7BE8
:10443C001946786801F0EEFF0346002B03D0BB68E9
:10444C0001221A6002E0BB6800221A60BB680222DB
:10445C001946786800F092FB04E03968786800F03F
:10446C0023FB00BF04E03968786800F01DFB00BF37
:10447C0004E03968786800F017FB00BFFB7B184636
:10448C001037BD4680BD000080B584B000AF7860A9
:10449C00396000233B810023FB600023FB723B68E7
:1044AC005B881B0A9BB2013B062B00F2288101A200
:1044BC0052F823F0DD440008F544000835450008A7
:1044CC000B4700080B470008AB460008D74600080E
:1044DC007B68D3F8B0321B687A68127C07F108014C
:1044EC0010469847F86012E17B681B7C002B0DD1BD
:1044FC007B68D3F8B4329B6A07F1080210469847E0
:10450C00F860FB68013302221A7000E17B68D3F873
:10451C00B432DB6A07F1080210469847F860FB6872
:10452C00013302221A70F2E03B685B88DBB2052B88
:10453C0000F2AC8001A252F823F000BF61450008E4
:10454C0095450008C9450008FD450008314600089E
:10455C00654600087B68D3F8B0325B68002B0BD043
:10456C007B68D3F8B0325B687A68127C07F108017B
:10457C0010469847F86091E03968786800F094FA32
:10458C00FB7A0133FB7289E07B68D3F8B0329B680D
:10459C00002B0BD07B68D3F8B0329B687A68127C06
:1045AC0007F1080110469847F86077E03968786899
:1045BC0000F07AFAFB7A0133FB726FE07B68D3F878
:1045CC00B032DB68002B0BD07B68D3F8B032DB68E1
:1045DC007A68127C07F1080110469847F8605DE094
:1045EC003968786800F060FAFB7A0133FB7255E0A9
:1045FC007B68D3F8B0321B69002B0BD07B68D3F8E7
:10460C00B0321B697A68127C07F108011046984792
:10461C00F86043E03968786800F046FAFB7A0133B9
:10462C00FB723BE07B68D3F8B0325B69002B0BD09C
:10463C007B68D3F8B0325B697A68127C07F10801A9
:10464C0010469847F86029E03968786800F02CFA31
:10465C00FB7A0133FB7221E07B68D3F8B0329B69A3
:10466C00002B0BD07B68D3F8B0329B697A68127C34
:10467C0007F1080110469847F8600FE03968786830
:10468C0000F012FAFB7A0133FB7207E039687868A4
:10469C0000F00AFAFB7A0133FB7238E037E07B68F2
:1046AC001B7C002B09D17B68D3F8B4325B6B07F110
:1046BC00080210469847F86029E03968786800F0DD
:1046CC00F3F9FB7A0133FB7221E07B681B7C002B36
:1046DC000DD17B68D3F8B4321B6B07F1080210467E
:1046EC009847F860FB68013307221A700FE03968AD
:1046FC00786800F0D9F9FB7A0133FB7207E039686E
:10470C00786800F0D1F9FB7A0133FB7200BFFB7AB9
:10471C00002B1CD13B89002B11D03B68DB88002B74
:10472C000DD03B68DA883B89934228BF13469BB275
:10473C003B813B891A46F968786800F01FFA3B68A0
:10474C00DB88002B04D1786800F076FA00E000BF1B
:10475C001037BD4680BD00BF80B584B000AF786017
:10476C0039603B689B88002B30D13B68DB88002B81
:10477C002CD13B685B887F2B28D83B685B88DBB2ED
:10478C0003F07F03FB737B6893F89C32032B04D1FB
:10479C003968786800F088F91CE07B68FA7B83F84C
:1047AC009E22FB7B1946786801F059FE786800F070
:1047BC0043FAFB7B002B04D07B68022283F89C22FB
:1047CC0008E07B68012283F89C2203E03968786852
:1047DC0000F06AF900BF1037BD4680BD80B582B0CD
:1047EC0000AF786039603B685B88DAB2414B1A7075
:1047FC00404B1B78012B04D93968786800F054F9C8
:10480C0075E07B6893F89C32022B02D0032B23D0EB
:10481C0062E0384B1B78002B1AD0364B1B781A46AB
:10482C007B685A607B68032283F89C22314B1B788F
:10483C0019467868FFF7F4F90346022B04D139685E
:10484C00786800F031F952E0786800F0F5F94EE044
:10485C00786800F0F1F94AE0264B1B78002B12D156
:10486C007B68022283F89C22224B1B781A467B68B9
:10487C005A60204B1B7819467868FFF7F0F9786876
:10488C0000F0DAF933E01B4B1B781A467B685B6847
:10489C009A421DD07B685B68DBB219467868FFF7DB
:1048AC00DEF9144B1B781A467B685A60114B1B7847
:1048BC0019467868FFF7B4F90346022B04D139681E
:1048CC00786800F0F1F812E0786800F0B5F90EE0C5
:1048DC00786800F0B1F90AE03968786800F0E4F81B
:1048EC00044B1B7819467868FFF7B9F900BF0837F5
:1048FC00BD4680BD7C03002080B582B000AF7860DF
:10490C0039603B68DB88012B04D03968786800F08B
:10491C00CBF821E07B6893F89C32012B17DB022B40
:10492C0002DD032B0BD012E07B6800229A607B68BF
:10493C00083301221946786800F020F90CE07B68F6
:10494C00043301221946786800F018F904E039683C
:10495C00786800F0A9F800BF00BF0837BD4680BDDD
:10496C0080B582B000AF786039607B6893F89C3278
:10497C00013B022B1ED83B68DB88022B04D0396824
:10498C00786800F091F81AE07B680122DA607B68A5
:10499C00D3F8A432002B05D07B68DB6843F002020D
:1049AC007B68DA607B680C3302221946786800F069
:1049BC00E5F804E03968786800F076F800BF00BFCD
:1049CC000837BD4680BD80B582B000AF78603960D5
:1049DC003B685B88012B06D17B680122C3F8A422BB
:1049EC00786800F029F900BF0837BD4680BD80B556
:1049FC0082B000AF786039607B6893F89C32013BE1
:104A0C00022B0BD83B685B88012B0CD17B680022F6
:104A1C00C3F8A422786800F00FF904E039687868CC
:104A2C0000F042F800E000BF00BF0837BD4680BD73
:104A3C0080B483B000AF786039603B681A787B68CB
:104A4C001A703B685A787B685A703B6802331B7843
:104A5C009AB23B6803331B789BB21B029BB2134484
:104A6C009AB27B685A803B6804331B789AB23B68D5
:104A7C0005331B789BB21B029BB213449AB27B6822
:104A8C009A803B6806331B789AB23B6807331B78D5
:104A9C009BB21B029BB213449AB27B68DA8000BFB4
:104AAC000C37BD4680BC704780B582B000AF7860D3
:104ABC0039608021786801F06FFC0021786801F082
:104ACC006BFC00BF0837BD4680BD80B586B000AF1B
:104ADC00F860B9607A600023FB75FB68002B32D05C
:104AEC00F86800F034F8034601339BB25B009AB2CD
:104AFC007B681A80FB7D5A1CFA751A46BB681344F6
:104B0C007A6812781A70FB7D5A1CFA751A46BB68C3
:104B1C00134403221A7012E0FB685A1CFA60FA7DE7
:104B2C00511CF9751146BA680A441B781370FB7D49
:104B3C005A1CFA751A46BB68134400221A70FB689B
:104B4C001B78002BE8D100BF1837BD4680BD80B460
:104B5C0085B000AF78600023FB7305E0FB7B01336D
:104B6C00FB737B6801337B607B681B78002BF5D172
:104B7C00FB7B18461437BD4680BC704780B584B0AB
:104B8C0000AFF860B9601346FB80FB680222C3F8E3
:104B9C009422FA88FB68DA61FA88FB681A62FB884F
:104BAC00BA680021F86801F079FC00231846103728
:104BBC00BD4680BD80B584B000AFF860B9601346C7
:104BCC00FB80FB88BA680021F86801F067FC0023C1
:104BDC0018461037BD4680BD80B584B000AFF86074
:104BEC00B9601346FB80FB680322C3F89422FA8851
:104BFC00FB68C3F85C21FA88FB68C3F86021FB886A
:104C0C00BA680021F86801F06CFC002318461037D4
:104C1C00BD4680BD80B584B000AFF860B960134666
:104C2C00FB80FB88BA680021F86801F05AFC00236D
:104C3C0018461037BD4680BD80B582B000AF786095
:104C4C007B680422C3F89422002300220021786898
:104C5C0001F024FC002318460837BD4680BD80B502
:104C6C0082B000AF78607B680522C3F894220023E1
:104C7C0000220021786801F034FC00231846083724
:104C8C00BD4680BD80B400AFBFF34F8F054BDB68D2
:104C9C0003F4E0620349044B1343CB60BFF34F8F23
:104CAC0000BFFDE700ED00E00400FA05B0B500AF71
:104CBC0042F21070FBF7B8FA414B00221A70404BCD
:104CCC00404A07CA03C31A800233120C1A703C48BC
:104CDC00FBF740FA03469AB24FF47A7338493A48D4
:104CEC00FDF749F94FF4FA60FBF79EFA344B0022BA
:104CFC001A70334B354A07CA03C31A800233120C9D
:104D0C001A702F48FBF726FA03469AB24FF47A73BF
:104D1C002B492D48FDF72FF94FF4FA60FBF784FA75
:104D2C00274B00221A70264A294B14460FCB07C476
:104D3C00238002341B0C23702148FBF70BFA03462B
:104D4C009AB24FF47A731E491F48FDF714F94FF4C9
:104D5C00FA60FBF769FA1A4B00221A70184B1D4ABD
:104D6C0092E803001860043319801548FBF7F2F938
:104D7C0003469AB24FF47A7311491348FDF7FBF8C6
:104D8C004FF4FA60FBF750FA0D4B00221A700C4AE4
:104D9C00114B14461D460FCD0FC42B6823600848D9
:104DAC00FBF7D8F903469AB24FF47A7304490648D4
:104DBC00FDF7E1F841F28830FBF736FA00BFB0BDE1
:104DCC008403002024730008780600203073000848
:104DDC003C7300084C73000854730008B0B500AF66
:104DEC00A14B4FF480721A61A04B1B78002B05D09D
:104DFC009E4B1B78013BDAB29C4B1A709C4B1B7878
:104E0C00002B05D09A4B1B78013BDAB2984B1A70E9
:104E1C00984B00221A801BE1934B9B6803F40073A0
:104E2C00002B1AD1944B1B8801339AB2924B1A80E7
:104E3C00914B1B88032B13D9904B1B781A46904926
:104E4C00904801F067FD904B01221A708F4B0122A4
:104E5C001A70894B00221A8002E0874B00221A80BC
:104E6C008B4B9B6803F00803002B23D1894B1B78D9
:104E7C00012B25D1884B1B780133DAB2864B1A7083
:104E8C00854B1B78642B1BD97E4A844B14460FCB65
:104E9C0007C4238002341B0C23707B4B01221A7035
:104EAC007A4B01221A707C4B00221A70794B00222B
:104EBC001A7005E0774B01221A70774B00221A709A
:104ECC004FF400717248FBF739FC0346012B24D1D7
:104EDC00734B1B78012B26D1724B1B780133DAB242
:104EEC00704B1A706F4B1B78142B1CD96E4B1B78A4
:104EFC00012B0BD1634A6D4B14460FCB07C42370A7
:104F0C00614B01221A70614B01221A70654B002211
:104F1C001A70634B00221A7005E0614B01221A7063
:104F2C00604B00221A704FF400715948FBF706FCD5
:104F3C000346002B40F0838004214B48FBF7FEFB1B
:104F4C000346012B32D1484B20221A61584B1B7857
:104F5C00012B34D1464B1B78002B30D1554B1B7891
:104F6C000133DAB2534B1A70524B1B78052B26D9EE
:104F7C004D4B1B78012B0FD1424A4F4B14461D460B
:104F8C000FCD0FC495E8030084E803003E4B0122CB
:104F9C001A703E4B01221A70464B00221A70344B89
:104FAC0014221A70424B00221A7008E02E4B202259
:104FBC005A613F4B01221A703E4B00221A702A4B49
:104FCC009B6803F00203002B33D13C4B1B78012B65
:104FDC0035D1264B1B78002B31D1394B1B78013343
:104FEC00DAB2374B1A70364B1B78052B27D92E4B60
:104FFC001B78012B13D1234A324B14461D460FCD7F
:10500C000FC495E8030020600434218002340B0C9B
:10501C0023701D4B01221A701C4B01221A70284B55
:10502C0000221A70114B32221A70244B00221A7073
:10503C0005E0224B01221A70214B00221A703220FB
:10504C00FBF7F2F80B4B1B8801339AB2094B1A8011
:10505C00084B1B881D2B7FF6DFAE034B4FF4807281
:10506C005A6100BFB0BD00BF000C01400706002014
:10507C000A0600208003002000060020FA0500200C
:10508C00687300089C050020FD050020FE0500202B
:10509C00000801400206002003060020807300086F
:1050AC000406002005060020F2050020907300087D
:1050BC00090600200B060020A0730008060600203D
:1050CC0008060020B8730008B0B500AF274B2022AB
:1050DC001A61274B00221A70254A264B14461D468E
:1050EC000FCD0FC42B6823602148FBF733F8034620
:1050FC009AB24FF47A731E491F48FCF73CFF4FF4E9
:10510C009670FBF791F81A4B00221A701B4A1C4937
:10511C00174801F0FFFB1648FBF71CF803469AB240
:10512C004FF47A7312491448FCF725FF4FF496702C
:10513C00FBF77AF81348FBF70DF803469AB24FF4D5
:10514C007A7310490C48FCF716FF4FF47A7301225E
:10515C000D490948FCF70FFF4FF47A70FBF764F820
:10516C00024B20225A6100BFB0BD00BF000C0140B1
:10517C00C8030020D073000878060020FC00002033
:10518C00E47300089C050020F400002080B500AFFB
:10519C0041F28830FBF748F8184B00221A70184A75
:1051AC001849164801F0B6FB1448FAF7D3FF03462A
:1051BC009AB24FF47A7311491348FCF7DCFE48F6A7
:1051CC00B800FBF731F80D4B00221A700B4B0F4A4D
:1051DC0092E803001860043319700848FAF7BAFF14
:1051EC0003469AB24FF47A7304490748FCF7C3FE9E
:1051FC004FF47A70FBF718F800BF80BDC80300208D
:10520C00FC000020F87300087806002004740008E5
:10521C0098B500AF714B00221A70714B00221A80A6
:10522C000BE06F4B1B881A466E4B002199546C4B4C
:10523C001B8801339AB26A4B1A80694B1B887F2BEF
:10524C00EFD9664B684A07CA03C31A800233120CA3
:10525C001A706248FAF77EFF03469AB24FF47A73DB
:10526C005E496248FCF787FE642380225D495F48F3
:10527C00FCF71AFF5E4B00221A705E4B00221A706C
:10528C005D4B00221A705D4B00221A705C4B0022A1
:10529C001A70534B00221A804BE0514B1B881A4654
:1052AC00504B9A5C544B1A704D4B1B8801334D4A32
:1052BC00D25C514B5A704A4B1B880233494AD25C20
:1052CC004D4B9A70464B1B880333464AD25C4A4B73
:1052DC00DA70434B1B880433424AD25C464B1A713A
:1052EC003F4B1B8805333F4AD25C434B5A71424BB0
:1052FC001B78552B17D1404B5B784E2B13D13E4B63
:10530C009B78522B0FD13C4BDB78452B0BD13A4B76
:10531C001B79412B07D1384B5B79442B03D1344B90
:10532C0001221A7009E02E4B1B8801339AB22C4BC8
:10533C001A802B4B1B881D2BAFD92D4B1B78002BA8
:10534C003DD1274B00221A8035E0254B1B881A468D
:10535C00244B9A5C294B1A70214B1B880133214A30
:10536C00D25C264B5A701E4B1B8802331D4AD25CF2
:10537C00224B9A701A4B1B8803331A4AD25C1F4B70
:10538C00DA701E4B1B78522B0FD11C4B5B78452BC4
:10539C000BD11A4B9B78412B07D1184BDB78442B44
:1053AC0003D1184B01221A7009E00D4B1B880133F5
:1053BC009AB20B4B1A800A4B1B881D2BC5D90C4B70
:1053CC001B78012B40F004810E4B01221A700E4BFE
:1053DC0000221A70024B00221A807BE0C8030020C6
:1053EC0080030020EC0300200C74000878060020D9
:1053FC00F1050020F505002078050020800500202F
:10540C0074050020F3050020F4050020904B1B8848
:10541C001A46904B9A5C904B1B789A4254D18C4B09
:10542C001B8801338B4AD25C8B4B5B789A424BD1F5
:10543C00874B1B880233874AD25C874B9B789A42F6
:10544C0042D1834B1B880333824AD25C824BDB787C
:10545C009A4239D17E4B1B8804337E4AD25C7E4BF8
:10546C001B799A4230D17A4B1B880533794AD25C2E
:10547C00794B5B799A4227D1754B1B880633754A59
:10548C00D25C754B9B799A421ED1714B1B880733AA
:10549C00704AD25C704BDB799A4215D16C4B1B88ED
:1054AC0008336C4AD25C6C4B1B7A9A420CD1684B19
:1054BC001B880933674AD25C674B5B7A9A4203D1EB
:1054CC00664B01221A7009E0614B1B8801339AB2BA
:1054DC005F4B1A805E4B1B881D2B97D9604B0022AB
:1054EC001A705E4B1B78012B72D1594B32221A80E9
:1054FC006AE0574B1B881A46564B9A5C594B1A70EC
:10550C00534B1B880133534AD25C564B5A70554B44
:10551C001B784F2B03D0534B1B786F2B0ED1514B59
:10552C005B784E2B03D04F4B5B786E2B06D14E4BDA
:10553C0001221A704D4B01221A7049E0494B1B781D
:10554C004F2B03D0474B1B786F2B0ED1454B5B7801
:10555C00462B03D0434B5B78662B06D1424B002283
:10556C001A70424B01221A7032E03E4B1B78532BBF
:10557C0003D03C4B1B78732B0ED13A4B5B78542BDE
:10558C0003D0384B5B78742B06D1384B01221A7040
:10559C00334B01221A701BE0324B1B78522B03D079
:1055AC00304B1B78722B09D12E4B5B78532B03D0CD
:1055BC002C4B5B78732B01D1FFF764FB244B1B88BE
:1055CC0001339AB2224B1A80214B1B884F2B90D956
:1055DC00274B00221A70254B1B78012B40F0A18021
:1055EC00244B20221A61214B00221A70224B0122DB
:1055FC001A70224B00221A701B4B1B78012B08D1FE
:10560C001E4B1F4A07CA03C31A800233120C1A70AE
:10561C0004E01A4B1B4A07CA83E80700104B1B789F
:10562C00012B78D1184B9B6803F00803002B2FD16A
:10563C001248FAF78FFD03461A46104B1344134ACF
:10564C001C46134607CB20606160A26031E000BFAE
:10565C0080030020EC030020FC000020F405002057
:10566C000C06002074050020F2050020F505002032
:10567C00F1050020000C0140FD0500209C050020D8
:10568C0018740008247400080008014030740008E5
:10569C002548FAF75FFD03461A46234B134423496A
:1056AC001A460B4603CB1060516019889B78118108
:1056BC0093724FF400711E48FBF740F80346012B20
:1056CC000FD11948FAF746FD03461A46164B1344F8
:1056DC0018491A460B4603CB106051601B781372A5
:1056EC000EE01148FAF736FD03461A460E4B1344EA
:1056FC0011491A460B4603CB106051601B8813816D
:10570C000E4B1B781A460E490E4801F003F90D4951
:10571C00054801F01FF90A20FAF786FD0A4B2022F2
:10572C005A6100BF98BD00BF9C0500203C74000866
:10573C00000801404874000854740008FA05002061
:10574C0060740008E0050020000C014080B500AF3B
:10575C00654B00221A70644B644A92E8030083E89C
:10576C000300634B00221A800BE0614B1B881A4626
:10577C00604B002199545E4B1B8801339AB25C4BF1
:10578C001A805B4B1B887F2BEFD95748FAF7E2FC4A
:10579C0003469AB24FF47A7353495748FCF7EBFB24
:1057AC00C823802253495448FCF77EFC534B0122FA
:1057BC001A70534B00221A70524B00221A70524B23
:1057CC0000221A70514B00221A70494B00221A8089
:1057DC007AE04B4B00221A70454B1B881A46454BFE
:1057EC00134408221946464801F0C3F84849444876
:1057FC00FAF7A6FC0346002B60D1404B00221A702E
:10580C003B4B1B8808333B4AD25C3F4B1A70384BDE
:10581C001B880933374AD25C3B4B5A70344B1B887C
:10582C000A33344AD25C384B9A70374B1B78312B85
:10583C000BD1354B5B78302B07D1334B9B78302B0E
:10584C0003D1324B64221A7014E0294B1B880833A5
:10585C00284AD25C2B4B1A70254B1B880933254ADE
:10586C00D25C284B5A70274801F01DF80346DAB277
:10587C00264B1A70254B1B781F2B02D9254B1F2248
:10588C001A70224B1A78234B1B789A4216D2214B52
:10589C001B780A2B12D91F4B1B780A3BDAB21D4B13
:1058AC001A701D4B01221A701C4B00221A70174BD8
:1058BC001B781A461A49194801F02CF80C4B1B8816
:1058CC0001339AB20A4B1A80094B1B881D2B80D9C5
:1058DC000E4B1B78022B03D9084B1B78012B01D1E3
:1058EC00FFF7D0F900BF80BD840300206C74000862
:1058FC00800300207004002078060020FB050020A7
:10590C00880500209405002098050020FA05002049
:10591C007474000807010020FD0500209C05002080
:10592C0080740008B0B500AF124B20221A61C82059
:10593C00FAF77AFC104B00221A700F4A0F4B1446E0
:10594C001D460FCD0FC42B6823600B48FAF702FCE1
:10595C0003469AB24FF47A7307490948FCF70BFBDC
:10596C004FF4FA60FAF760FC024B20225A6100BF38
:10597C00B0BD00BF000C0140C803002054730008E8
:10598C007806002080B582B000AFFAF7EBFB00F090
:10599C001DF900F09FF900F073F900F061FB0A208B
:1059AC00FAF742FC724B00221A80724B00221A70DA
:1059BC00714B00221A80714B00221A80704B00220E
:1059CC001A8000224FF480616E48FAF7CEFE4FF435
:1059DC00FA60FAF729FC01224FF480616948FAF762
:1059EC00C4FEFFF763F94FF4FA60FAF71DFCFFF7FA
:1059FC00ADFE654B01221A70644B00221A70644B89
:105A0C001B781A466349614800F084FF594B1B7898
:105A1C00DBB2012B59D1574B00221A7000237B604B
:105A2C000BE05D4A7B68134419785C4A7B6813442D
:105A3C000A461A707B6801337B607B683F2BF0DD74
:105A4C00574B00221A800BE0554B1B881A46554BBE
:105A5C0000219954524B1B8801339AB2504B1A8037
:105A6C004F4B1B887F2BEFD94C48FAF773FB03463F
:105A7C009AB24FF4FA6349494B48FCF77CFA4FF45D
:105A8C007A73012249494848FCF775FA4FF4FA63D6
:105A9C00802244494448FCF707FB0023FB7008E0D4
:105AAC00FA78FB783F49895C414AD154FB78013341
:105ABC00FB70FB783F2BF3D940223D493D48FDF765
:105ACC0087FF6420FAF7B0FBA0E7FFF787F9FFF731
